{
  "address": "0x41D6B107dF77428CD8DEd3A2dc74Bd8558dD1135",
  "abi": [
    {
      "inputs": [
        {
          "internalType": "address",
          "name": "_confUsdc",
          "type": "address"
        },
        {
          "internalType": "address",
          "name": "_confUsdt",
          "type": "address"
        }
      ],
      "stateMutability": "nonpayable",
      "type": "constructor"
    },
    {
      "anonymous": false,
      "inputs": [
        {
          "indexed": true,
          "internalType": "address",
          "name": "employer",
          "type": "address"
        },
        {
          "indexed": true,
          "internalType": "address",
          "name": "payroll",
          "type": "address"
        }
      ],
      "name": "PayrollCreated",
      "type": "event"
    },
    {
      "inputs": [
        {
          "internalType": "uint256",
          "name": "",
          "type": "uint256"
        }
      ],
      "name": "allPayrolls",
      "outputs": [
        {
          "internalType": "address",
          "name": "",
          "type": "address"
        }
      ],
      "stateMutability": "view",
      "type": "function"
    },
    {
      "inputs": [],
      "name": "confUsdcAddress",
      "outputs": [
        {
          "internalType": "address",
          "name": "",
          "type": "address"
        }
      ],
      "stateMutability": "view",
      "type": "function"
    },
    {
      "inputs": [],
      "name": "confUsdtAddress",
      "outputs": [
        {
          "internalType": "address",
          "name": "",
          "type": "address"
        }
      ],
      "stateMutability": "view",
      "type": "function"
    },
    {
      "inputs": [],
      "name": "create",
      "outputs": [
        {
          "internalType": "address",
          "name": "",
          "type": "address"
        }
      ],
      "stateMutability": "nonpayable",
      "type": "function"
    },
    {
      "inputs": [],
      "name": "totalPayrolls",
      "outputs": [
        {
          "internalType": "uint256",
          "name": "",
          "type": "uint256"
        }
      ],
      "stateMutability": "view",
      "type": "function"
    },
    {
      "inputs": [
        {
          "internalType": "address",
          "name": "",
          "type": "address"
        }
      ],
      "name": "userPayroll",
      "outputs": [
        {
          "internalType": "address",
          "name": "",
          "type": "address"
        }
      ],
      "stateMutability": "view",
      "type": "function"
    }
  ],
  "transactionHash": "0x54d2c837eced0e4b293519be6513a3c545a028076e653162f794b03e88f71d3b",
  "args": [
    "0xD50988540B8808ccC9b102009B4282B433E1ff2D",
    "0x7B57AdDf2361f0C1D7BB6CC342572954c1a56888"
  ],
  "numDeployments": 1,
  "solcInputHash": "d6d8ac281ab73985cad59c79433f2205",
  "bytecode": "0x60c060405234801561000f575f5ffd5b5060405161278c38038061278c83398101604081905261002e91610111565b6001600160a01b0382166100895760405162461bcd60e51b815260206004820152601360248201527f466163746f72793a207a65726f2063555344430000000000000000000000000060448201526064015b60405180910390fd5b6001600160a01b0381166100df5760405162461bcd60e51b815260206004820152601360248201527f466163746f72793a207a65726f206355534454000000000000000000000000006044820152606401610080565b6001600160a01b039182166080521660a052610142565b80516001600160a01b038116811461010c575f5ffd5b919050565b5f5f60408385031215610122575f5ffd5b61012b836100f6565b9150610139602084016100f6565b90509250929050565b60805160a05161261c6101705f395f8181610108015261020e01525f8181607801526101ed015261261c5ff3fe608060405234801561000f575f5ffd5b506004361061006f575f3560e01c8063b680daa01161004d578063b680daa0146100f2578063e508061814610103578063efc81a8c1461012a575f5ffd5b80635c4848a1146100735780636dbc9f42146100b757806398085fce146100ca575b5f5ffd5b61009a7f000000000000000000000000000000000000000000000000000000000000000081565b6040516001600160a01b0390911681526020015b60405180910390f35b61009a6100c536600461032a565b610132565b61009a6100d8366004610341565b5f602081905290815260409020546001600160a01b031681565b6001546040519081526020016100ae565b61009a7f000000000000000000000000000000000000000000000000000000000000000081565b61009a61015a565b60018181548110610141575f80fd5b5f918252602090912001546001600160a01b0316905081565b335f908152602081905260408120546001600160a01b0316156101e95760405162461bcd60e51b815260206004820152602c60248201527f436f6e666964656e7469616c506179726f6c6c466163746f72793a20616c726560448201527f616479206465706c6f7965640000000000000000000000000000000000000000606482015260840160405180910390fd5b5f337f00000000000000000000000000000000000000000000000000000000000000007f00000000000000000000000000000000000000000000000000000000000000006040516102399061031d565b6001600160a01b03938416815291831660208301529091166040820152606001604051809103905ff080158015610272573d5f5f3e3d5ffd5b50335f8181526020819052604080822080546001600160a01b0386167fffffffffffffffffffffffff000000000000000000000000000000000000000091821681179092556001805480820182559085527fb10e2d527612073b26eecdfd717e6a320cf44b4afac2b0732d9fcbe2b7fa0cf6018054909116821790559051939450927f35b0f6009ee0752df8ea670e46f05e1e4c7f96f834d990ecff094317d6784e189190a3919050565b6122a18061036f83390190565b5f6020828403121561033a575f5ffd5b5035919050565b5f60208284031215610351575f5ffd5b81356001600160a01b0381168114610367575f5ffd5b939250505056fe608060405234801561000f575f5ffd5b506040516122a13803806122a183398101604081905261002e91610352565b6100e2610039610188565b80517f9e7b61f58c47dc699ac88507c4f5bb9f121c03808c5676a8078fe583e464970080546001600160a01b03199081166001600160a01b039384161790915560208301517f9e7b61f58c47dc699ac88507c4f5bb9f121c03808c5676a8078fe583e46497018054831691841691909117905560408301517f9e7b61f58c47dc699ac88507c4f5bb9f121c03808c5676a8078fe583e46497028054909216921691909117905550565b6001600160a01b0383166101475760405162461bcd60e51b815260206004820152602260248201527f436f6e666964656e7469616c506179726f6c6c3a207a65726f20656d706c6f7960448201526132b960f11b606482015260840160405180910390fd5b5f80546001600160a01b039485166001600160a01b031991821617909155600180549385169382169390931790925560028054919093169116179055610392565b604080516060810182525f808252602082018190529181019190915246600103610221575060408051606080820183525f8083526020808401829052928401528251908101835273ca2e8f1f656cd25c01f05d0b243ab1ecd4a8ffb6815273d82385dada1ae3e969447f20a3164f6213100e75918101919091527377627828a55156b04ac0dc0eb30467f1a552bb039181019190915290565b4662aa36a7036102a0575060408051606080820183525f8083526020808401829052928401528251908101835273f0ffdc93b7e186bc2f8cb3daa75d86d1930a433d81527392c920834ec8941d2c77d188936e1f7a6f49c1279181019190915273be0e383937d564d7ff0bc3b46c51f0bf8d5c311a9181019190915290565b46617a690361031e575060408051606080820183525f808352602080840182905292840152825190810183527350157cffd6bbfa2dece204a89ec419c23ef5755d815273e3a9105a3a932253a70f126eb1e3b589c643dd249181019190915273901f8942346f7ab3a01f6d7613119bca447bb0309181019190915290565b6040516373cac13b60e01b815260040160405180910390fd5b80516001600160a01b038116811461034d575f5ffd5b919050565b5f5f5f60608486031215610364575f5ffd5b61036d84610337565b925061037b60208501610337565b915061038960408501610337565b90509250925092565b611f028061039f5f395ff3fe608060405260043610610126575f3560e01c806369a84cbc116100a1578063ae200e7911610071578063d108177a11610057578063d108177a14610317578063e508061814610336578063efe591fa14610355575f5ffd5b8063ae200e79146102da578063b0d1818c146102f8575f5ffd5b806369a84cbc1461028b5780636f5be0d61461029f5780638927b030146102be578063a21943ca146102d2575f5ffd5b80635806beaf116100f65780635ac09b2b116100dc5780635ac09b2b146101f35780635c4848a11461023257806368a411f614610269575f5ffd5b80635806beaf146101af578063597e1fb5146101c3575f5ffd5b80630b9362a2146101315780630ea37aef1461015b5780633f10409a1461017c57806353f535b914610190575f5ffd5b3661012d57005b5f5ffd5b34801561013c575f5ffd5b50610145610374565b6040516101529190611c8b565b60405180910390f35b348015610166575f5ffd5b5061017a610175366004611cec565b6103d4565b005b348015610187575f5ffd5b5061017a61081d565b34801561019b575f5ffd5b5061017a6101aa366004611d05565b610975565b3480156101ba575f5ffd5b5061017a610d85565b3480156101ce575f5ffd5b506002546101e390600160a01b900460ff1681565b6040519015158152602001610152565b3480156101fe575f5ffd5b5061021261020d366004611cec565b610e8f565b604080519315158452602084019290925260ff1690820152606001610152565b34801561023d575f5ffd5b50600154610251906001600160a01b031681565b6040516001600160a01b039091168152602001610152565b348015610274575f5ffd5b5061027d610ede565b604051908152602001610152565b348015610296575f5ffd5b5061027d610f5f565b3480156102aa575f5ffd5b5061027d6102b9366004611cec565b610fdf565b3480156102c9575f5ffd5b5061027d611052565b61017a611060565b3480156102e5575f5ffd5b505f54610251906001600160a01b031681565b348015610303575f5ffd5b5061017a610312366004611dab565b611196565b348015610322575f5ffd5b5061017a610331366004611cec565b611327565b348015610341575f5ffd5b50600254610251906001600160a01b031681565b348015610360575f5ffd5b5061017a61036f366004611d05565b611488565b606060048054806020026020016040519081016040528092919081815260200182805480156103ca57602002820191905f5260205f20905b81546001600160a01b031681526001909101906020018083116103ac575b5050505050905090565b5f546001600160a01b031633146104295760405162461bcd60e51b815260206004820152602160248201525f516020611ed65f395f51905f526044820152603960f91b60648201526084015b60405180910390fd5b600254600160a01b900460ff161561047f5760405162461bcd60e51b815260206004820152602660248201525f516020611eb65f395f51905f5260448201526518db1bdcd95960d21b6064820152608401610420565b6001600160a01b0381165f908152600360205260409020805460ff166104f35760405162461bcd60e51b815260206004820152602360248201527f436f6e666964656e7469616c506179726f6c6c3a206e6f7420726567697374656044820152621c995960ea1b6064820152608401610420565b5f8154610100900460ff16600281111561050f5761050f611dc2565b036106f657806001015447101561058e5760405162461bcd60e51b815260206004820152602660248201527f436f6e666964656e7469616c506179726f6c6c3a20696e73756666696369656e60448201527f7420706f6f6c00000000000000000000000000000000000000000000000000006064820152608401610420565b6105a081600301548260020154611723565b600382018190554260048301556105b69061175a565b5060038101545f546105d191906001600160a01b031661177a565b506105e081600301548361177a565b5060018101546040515f916001600160a01b038516918381818185875af1925050503d805f811461062c576040519150601f19603f3d011682016040523d82523d5f602084013e610631565b606091505b50509050806106a85760405162461bcd60e51b815260206004820152602860248201527f436f6e666964656e7469616c506179726f6c6c3a20455448207472616e73666560448201527f72206661696c65640000000000000000000000000000000000000000000000006064820152608401610420565b6001820154604080519182524260208301526001600160a01b038516917fe6784566ea810f71a9cd63f82925ef440935e26c9e28e52a099a00ff7af3bec891015b60405180910390a2505050565b80545f9061070b90610100900460ff1661179d565b905061071b82600201548261177a565b505f5460028301546040516366b6e7e760e11b81526001600160a01b039283166004820152858316602482015260448101919091529082169063cd6dcfce906064015f604051808303815f87803b158015610774575f5ffd5b505af1158015610786573d5f5f3e3d5ffd5b5050505061079c82600301548360020154611723565b600383018190554260048401556107b29061175a565b5060038201545f546107cd91906001600160a01b031661177a565b506107dc82600301548461177a565b50604080515f81524260208201526001600160a01b038516917fe6784566ea810f71a9cd63f82925ef440935e26c9e28e52a099a00ff7af3bec891016106e9565b5f546001600160a01b0316331461086d5760405162461bcd60e51b815260206004820152602160248201525f516020611ed65f395f51905f526044820152603960f91b6064820152608401610420565b600254600160a01b900460ff16156108c35760405162461bcd60e51b815260206004820152602660248201525f516020611eb65f395f51905f5260448201526518db1bdcd95960d21b6064820152608401610420565b600280547fffffffffffffffffffffff00ffffffffffffffffffffffffffffffffffffffff16600160a01b179055478015610930575f80546040516001600160a01b039091169183156108fc02918491818181858888f1935050505015801561092e573d5f5f3e3d5ffd5b505b5f546040518281526001600160a01b03909116907fdaadee866d599e18ad33ee6983902e63768e23ab297d433ab25340facbea63e2906020015b60405180910390a250565b5f546001600160a01b031633146109c55760405162461bcd60e51b815260206004820152602160248201525f516020611ed65f395f51905f526044820152603960f91b6064820152608401610420565b600254600160a01b900460ff1615610a1b5760405162461bcd60e51b815260206004820152602660248201525f516020611eb65f395f51905f5260448201526518db1bdcd95960d21b6064820152608401610420565b6001600160a01b038616610a7b5760405162461bcd60e51b815260206004820152602160248201527f436f6e666964656e7469616c506179726f6c6c3a207a65726f206164647265736044820152607360f81b6064820152608401610420565b6001600160a01b0386165f9081526003602052604090205460ff1615610b095760405162461bcd60e51b815260206004820152602760248201527f436f6e666964656e7469616c506179726f6c6c3a20616c72656164792072656760448201527f69737465726564000000000000000000000000000000000000000000000000006064820152608401610420565b5f856002811115610b1c57610b1c611dc2565b14610b28576001610b2c565b5f84115b610b785760405162461bcd60e51b815260206004820181905260248201527f436f6e666964656e7469616c506179726f6c6c3a207a65726f2073616c6172796044820152606401610420565b5f610bb88484848080601f0160208091040260200160405190810160405280939291908181526020018383808284375f920191909152506117d992505050565b90506040518060c00160405280600115158152602001876002811115610be057610be0611dc2565b8152602001868152602001828152602001610bfa5f61183f565b81525f60209182018190526001600160a01b038a16815260038252604090208251815490151560ff19821681178355928401519192839161ff001990911661ffff1990911617610100836002811115610c5557610c55611dc2565b021790555060408201516001820155606082015160028201556080820151600382015560a0909101516004909101555f54610c9b9082906001600160a01b031689611855565b6001600160a01b038088165f908152600360208190526040822001549054610cc4921689611855565b5f866002811115610cd757610cd7611dc2565b14610cf057610cee81610ce98861179d565b61177a565b505b600480546001810182555f9182527f8a35acfbc15ff81a39ae7d344fd709f28e8600b4aa8c65c6b64bfe7fe36bd19b0180547fffffffffffffffffffffffff0000000000000000000000000000000000000000166001600160a01b038a1690811790915560405190917f041109cfe10cfa549abb66b986d0a294ecc6c9ad39000abcb9c2afd422c8bd6491a250505050505050565b5f546001600160a01b03163314610dd55760405162461bcd60e51b815260206004820152602160248201525f516020611ed65f395f51905f526044820152603960f91b6064820152608401610420565b600254600160a01b900460ff1615610e2b5760405162461bcd60e51b815260206004820152602660248201525f516020611eb65f395f51905f5260448201526518db1bdcd95960d21b6064820152608401610420565b5f5b600454811015610e8c575f60048281548110610e4b57610e4b611dd6565b5f9182526020808320909101546001600160a01b0316808352600390915260409091205490915060ff1615610e8357610e83816103d4565b50600101610e2d565b50565b6001600160a01b0381165f9081526003602052604081208054600482015483928392909160ff808316926101009004166002811115610ed057610ed0611dc2565b935093509350509193909250565b335f9081526003602052604081205460ff16610f485760405162461bcd60e51b815260206004820152602360248201527f436f6e666964656e7469616c506179726f6c6c3a206e6f7420726567697374656044820152621c995960ea1b6064820152608401610420565b50335f908152600360208190526040909120015490565b335f9081526003602052604081205460ff16610fc95760405162461bcd60e51b815260206004820152602360248201527f436f6e666964656e7469616c506179726f6c6c3a206e6f7420726567697374656044820152621c995960ea1b6064820152608401610420565b50335f9081526003602052604090206002015490565b5f80546001600160a01b031633146110305760405162461bcd60e51b815260206004820152602160248201525f516020611ed65f395f51905f526044820152603960f91b6064820152608401610420565b506001600160a01b0381165f908152600360205260409020600201545b919050565b5f61105b61187a565b905090565b5f546001600160a01b031633146110b05760405162461bcd60e51b815260206004820152602160248201525f516020611ed65f395f51905f526044820152603960f91b6064820152608401610420565b600254600160a01b900460ff16156111065760405162461bcd60e51b815260206004820152602660248201525f516020611eb65f395f51905f5260448201526518db1bdcd95960d21b6064820152608401610420565b5f341161115f5760405162461bcd60e51b815260206004820152602160248201527f436f6e666964656e7469616c506179726f6c6c3a207a65726f206465706f73696044820152601d60fa1b6064820152608401610420565b60405134815233907f8965492665ae65aac7bb9b650760a8c61148b40e6c988ed5a646e420676d45119060200160405180910390a2565b5f546001600160a01b031633146111e65760405162461bcd60e51b815260206004820152602160248201525f516020611ed65f395f51905f526044820152603960f91b6064820152608401610420565b600254600160a01b900460ff161561123c5760405162461bcd60e51b815260206004820152602660248201525f516020611eb65f395f51905f5260448201526518db1bdcd95960d21b6064820152608401610420565b804710156112b25760405162461bcd60e51b815260206004820152602560248201527f436f6e666964656e7469616c506179726f6c6c3a20696e73756666696369656e60448201527f74204554480000000000000000000000000000000000000000000000000000006064820152608401610420565b5f80546040516001600160a01b039091169183156108fc02918491818181858888f193505050501580156112e8573d5f5f3e3d5ffd5b505f546040518281526001600160a01b03909116907fd67c298f52d5211bea18b7d32bd3ad2d4794a5fea8a1a347d83d424c0264d1d49060200161096a565b5f546001600160a01b031633146113775760405162461bcd60e51b815260206004820152602160248201525f516020611ed65f395f51905f526044820152603960f91b6064820152608401610420565b600254600160a01b900460ff16156113cd5760405162461bcd60e51b815260206004820152602660248201525f516020611eb65f395f51905f5260448201526518db1bdcd95960d21b6064820152608401610420565b6001600160a01b0381165f9081526003602052604090205460ff166114405760405162461bcd60e51b815260206004820152602360248201527f436f6e666964656e7469616c506179726f6c6c3a206e6f7420726567697374656044820152621c995960ea1b6064820152608401610420565b6001600160a01b0381165f81815260036020526040808220805460ff19169055517fabae6e64cb4315875c29d42347a312f5e9fce4ab564e9722b43dd78d0751135a9190a250565b5f546001600160a01b031633146114d85760405162461bcd60e51b815260206004820152602160248201525f516020611ed65f395f51905f526044820152603960f91b6064820152608401610420565b600254600160a01b900460ff161561152e5760405162461bcd60e51b815260206004820152602660248201525f516020611eb65f395f51905f5260448201526518db1bdcd95960d21b6064820152608401610420565b6001600160a01b0386165f9081526003602052604090205460ff166115a15760405162461bcd60e51b815260206004820152602360248201527f436f6e666964656e7469616c506179726f6c6c3a206e6f7420726567697374656044820152621c995960ea1b6064820152608401610420565b5f8560028111156115b4576115b4611dc2565b146115c05760016115c4565b5f84115b6116105760405162461bcd60e51b815260206004820181905260248201527f436f6e666964656e7469616c506179726f6c6c3a207a65726f2073616c6172796044820152606401610420565b5f6116508484848080601f0160208091040260200160405190810160405280939291908181526020018383808284375f920191909152506117d992505050565b6001600160a01b0388165f9081526003602052604090208054919250879161ff00191661010083600281111561168857611688611dc2565b02179055506001600160a01b038088165f90815260036020526040812060018101889055600201839055546116c09183911689611855565b5f8660028111156116d3576116d3611dc2565b146116e7576116e581610ce98861179d565b505b6040516001600160a01b038816907fb3debde9d0bc806a4a35aca885a5f215dd93e8f41c4a546f746df85eb3fe505a905f90a250505050505050565b5f82611735576117325f61183f565b92505b81611746576117435f61183f565b91505b61175183835f6118ae565b90505b92915050565b5f8161176c576117695f61183f565b91505b611776823061198e565b5090565b5f8261178c576117895f61183f565b92505b611796838361198e565b5090919050565b5f60018260028111156117b2576117b2611dc2565b146117c8576002546001600160a01b0316611754565b50506001546001600160a01b031690565b5f81515f146117f5576117ee83836005611a17565b9050611754565b825f81900361180f576118075f61183f565b915050611754565b6118198133611b37565b6117ee57604051630276b5d960e01b815260048101829052336024820152604401610420565b5f6117548267ffffffffffffffff166005611bd6565b61185e8361175a565b50611869838361177a565b50611874838261177a565b50505050565b5f466001036118895750600190565b4662aa36a70361189a575061271190565b46617a69036118a957505f1990565b505f90565b5f5f82156118c15750600160f81b6118c4565b505f5b5f7f9e7b61f58c47dc699ac88507c4f5bb9f121c03808c5676a8078fe583e4649700600181015460405163022f65e760e31b815260048101899052602481018890527fff00000000000000000000000000000000000000000000000000000000000000851660448201529192506001600160a01b03169063117b2f38906064016020604051808303815f875af1158015611960573d5f5f3e3d5ffd5b505050506040513d601f19601f820116820180604052508101906119849190611dea565b9695505050505050565b5f7f9e7b61f58c47dc699ac88507c4f5bb9f121c03808c5676a8078fe583e46497008054604051635ca4b5b160e11b8152600481018690526001600160a01b03858116602483015292935091169063b9496b62906044015f604051808303815f87803b1580156119fc575f5ffd5b505af1158015611a0e573d5f5f3e3d5ffd5b50505050505050565b7f9e7b61f58c47dc699ac88507c4f5bb9f121c03808c5676a8078fe583e46497015460405163045fc19560e11b81525f917f9e7b61f58c47dc699ac88507c4f5bb9f121c03808c5676a8078fe583e4649700916001600160a01b03909116906308bf832a90611a90908890339089908990600401611e21565b6020604051808303815f875af1158015611aac573d5f5f3e3d5ffd5b505050506040513d601f19601f82011682018060405250810190611ad09190611dea565b8154604051630f8e573b60e21b8152600481018390523360248201529193506001600160a01b031690633e395cec906044015f604051808303815f87803b158015611b19575f5ffd5b505af1158015611b2b573d5f5f3e3d5ffd5b50505050509392505050565b5f807f9e7b61f58c47dc699ac88507c4f5bb9f121c03808c5676a8078fe583e464970080546040516382027b6d60e01b8152600481018790526001600160a01b0386811660248301529293509116906382027b6d90604401602060405180830381865afa158015611baa573d5f5f3e3d5ffd5b505050506040513d601f19601f82011682018060405250810190611bce9190611e7b565b949350505050565b7f9e7b61f58c47dc699ac88507c4f5bb9f121c03808c5676a8078fe583e464970154604051639cd07acb60e01b81525f917f9e7b61f58c47dc699ac88507c4f5bb9f121c03808c5676a8078fe583e4649700916001600160a01b0390911690639cd07acb90611c4b9087908790600401611ea1565b6020604051808303815f875af1158015611c67573d5f5f3e3d5ffd5b505050506040513d601f19601f82011682018060405250810190611bce9190611dea565b602080825282518282018190525f918401906040840190835b81811015611ccb5783516001600160a01b0316835260209384019390920191600101611ca4565b509095945050505050565b80356001600160a01b038116811461104d575f5ffd5b5f60208284031215611cfc575f5ffd5b61175182611cd6565b5f5f5f5f5f5f60a08789031215611d1a575f5ffd5b611d2387611cd6565b9550602087013560038110611d36575f5ffd5b94506040870135935060608701359250608087013567ffffffffffffffff811115611d5f575f5ffd5b8701601f81018913611d6f575f5ffd5b803567ffffffffffffffff811115611d85575f5ffd5b896020828401011115611d96575f5ffd5b60208201935080925050509295509295509295565b5f60208284031215611dbb575f5ffd5b5035919050565b634e487b7160e01b5f52602160045260245ffd5b634e487b7160e01b5f52603260045260245ffd5b5f60208284031215611dfa575f5ffd5b5051919050565b60548110611e1d57634e487b7160e01b5f52602160045260245ffd5b9052565b8481526001600160a01b0384166020820152608060408201525f8351806080840152806020860160a085015e5f60a0828501015260a0601f19601f830116840101915050611e726060830184611e01565b95945050505050565b5f60208284031215611e8b575f5ffd5b81518015158114611e9a575f5ffd5b9392505050565b82815260408101611e9a6020830184611e0156fe436f6e666964656e7469616c506179726f6c6c3a20706179726f6c6c20697320436f6e666964656e7469616c506179726f6c6c3a206e6f7420656d706c6f7965a164736f6c634300081b000aa164736f6c634300081b000a",
  "devdoc": {
    "kind": "dev",
    "methods": {
      "create()": {
        "details": "Reverts if the caller already has a deployed payroll."
      }
    },
    "title": "ConfidentialPayrollFactory",
    "version": 1
  },
  "userdoc": {
    "kind": "user",
    "methods": {
      "allPayrolls(uint256)": {
        "notice": "Ordered list of all payroll contracts ever created."
      },
      "create()": {
        "notice": "Deploy a fresh ConfidentialPayroll for the caller."
      },
      "userPayroll(address)": {
        "notice": "Returns the payroll contract deployed by a given employer address."
      }
    },
    "notice": "Anyone can call create() to deploy their own ConfidentialPayroll         instance. One deployment per wallet address.         The factory is deployed with the cUSDC and cUSDT wrapper addresses         so every payroll contract it creates supports all three salary tokens.",
    "version": 1
  },
  "storageLayout": {
    "storage": [
      {
        "astId": 43796,
        "contract": "contracts/ConfidentialPayrollFactory.sol:ConfidentialPayrollFactory",
        "label": "userPayroll",
        "offset": 0,
        "slot": "0",
        "type": "t_mapping(t_address,t_address)"
      },
      {
        "astId": 43800,
        "contract": "contracts/ConfidentialPayrollFactory.sol:ConfidentialPayrollFactory",
        "label": "allPayrolls",
        "offset": 0,
        "slot": "1",
        "type": "t_array(t_address)dyn_storage"
      }
    ],
    "types": {
      "t_address": {
        "encoding": "inplace",
        "label": "address",
        "numberOfBytes": "20"
      },
      "t_array(t_address)dyn_storage": {
        "base": "t_address",
        "encoding": "dynamic_array",
        "label": "address[]",
        "numberOfBytes": "32"
      },
      "t_mapping(t_address,t_address)": {
        "encoding": "mapping",
        "key": "t_address",
        "label": "mapping(address => address)",
        "numberOfBytes": "32",
        "value": "t_address"
      }
    }
  }
}