{
  "address": "0x3D9B9f5b04C5E0e7D6CD8B3F4e76128D63b6b024",
  "abi": [
    {
      "inputs": [
        {
          "internalType": "address",
          "name": "underlying_",
          "type": "address"
        },
        {
          "internalType": "string",
          "name": "name_",
          "type": "string"
        },
        {
          "internalType": "string",
          "name": "symbol_",
          "type": "string"
        },
        {
          "internalType": "uint8",
          "name": "decimals_",
          "type": "uint8"
        }
      ],
      "stateMutability": "nonpayable",
      "type": "constructor"
    },
    {
      "inputs": [],
      "name": "InvalidKMSSignatures",
      "type": "error"
    },
    {
      "inputs": [
        {
          "internalType": "bytes32",
          "name": "handle",
          "type": "bytes32"
        },
        {
          "internalType": "address",
          "name": "sender",
          "type": "address"
        }
      ],
      "name": "SenderNotAllowedToUseHandle",
      "type": "error"
    },
    {
      "inputs": [],
      "name": "ZamaProtocolUnsupported",
      "type": "error"
    },
    {
      "anonymous": false,
      "inputs": [
        {
          "indexed": false,
          "internalType": "bytes32[]",
          "name": "handlesList",
          "type": "bytes32[]"
        },
        {
          "indexed": false,
          "internalType": "bytes",
          "name": "abiEncodedCleartexts",
          "type": "bytes"
        }
      ],
      "name": "PublicDecryptionVerified",
      "type": "event"
    },
    {
      "anonymous": false,
      "inputs": [
        {
          "indexed": true,
          "internalType": "address",
          "name": "from",
          "type": "address"
        },
        {
          "indexed": true,
          "internalType": "address",
          "name": "to",
          "type": "address"
        }
      ],
      "name": "Transfer",
      "type": "event"
    },
    {
      "anonymous": false,
      "inputs": [
        {
          "indexed": true,
          "internalType": "address",
          "name": "receiver",
          "type": "address"
        },
        {
          "indexed": true,
          "internalType": "bytes32",
          "name": "requestId",
          "type": "bytes32"
        },
        {
          "indexed": false,
          "internalType": "uint64",
          "name": "amount",
          "type": "uint64"
        }
      ],
      "name": "UnwrapFinalized",
      "type": "event"
    },
    {
      "anonymous": false,
      "inputs": [
        {
          "indexed": true,
          "internalType": "address",
          "name": "receiver",
          "type": "address"
        },
        {
          "indexed": true,
          "internalType": "bytes32",
          "name": "requestId",
          "type": "bytes32"
        },
        {
          "indexed": false,
          "internalType": "bytes32",
          "name": "encHandle",
          "type": "bytes32"
        }
      ],
      "name": "UnwrapRequested",
      "type": "event"
    },
    {
      "anonymous": false,
      "inputs": [
        {
          "indexed": true,
          "internalType": "address",
          "name": "account",
          "type": "address"
        },
        {
          "indexed": false,
          "internalType": "uint256",
          "name": "amount",
          "type": "uint256"
        }
      ],
      "name": "Wrap",
      "type": "event"
    },
    {
      "inputs": [
        {
          "internalType": "address",
          "name": "operator",
          "type": "address"
        },
        {
          "internalType": "bool",
          "name": "approved",
          "type": "bool"
        }
      ],
      "name": "approveOperator",
      "outputs": [],
      "stateMutability": "nonpayable",
      "type": "function"
    },
    {
      "inputs": [
        {
          "internalType": "address",
          "name": "account",
          "type": "address"
        }
      ],
      "name": "balanceOf",
      "outputs": [
        {
          "internalType": "euint64",
          "name": "",
          "type": "bytes32"
        }
      ],
      "stateMutability": "view",
      "type": "function"
    },
    {
      "inputs": [],
      "name": "confidentialProtocolId",
      "outputs": [
        {
          "internalType": "uint256",
          "name": "",
          "type": "uint256"
        }
      ],
      "stateMutability": "view",
      "type": "function"
    },
    {
      "inputs": [],
      "name": "decimals",
      "outputs": [
        {
          "internalType": "uint8",
          "name": "",
          "type": "uint8"
        }
      ],
      "stateMutability": "view",
      "type": "function"
    },
    {
      "inputs": [
        {
          "internalType": "bytes32",
          "name": "requestId",
          "type": "bytes32"
        },
        {
          "internalType": "bytes32[]",
          "name": "handles",
          "type": "bytes32[]"
        },
        {
          "internalType": "bytes",
          "name": "abiEncodedCleartexts",
          "type": "bytes"
        },
        {
          "internalType": "bytes",
          "name": "decryptionProof",
          "type": "bytes"
        }
      ],
      "name": "finalizeUnwrap",
      "outputs": [],
      "stateMutability": "nonpayable",
      "type": "function"
    },
    {
      "inputs": [
        {
          "internalType": "address",
          "name": "operator",
          "type": "address"
        },
        {
          "internalType": "address",
          "name": "owner",
          "type": "address"
        }
      ],
      "name": "isOperatorApproved",
      "outputs": [
        {
          "internalType": "bool",
          "name": "",
          "type": "bool"
        }
      ],
      "stateMutability": "view",
      "type": "function"
    },
    {
      "inputs": [],
      "name": "name",
      "outputs": [
        {
          "internalType": "string",
          "name": "",
          "type": "string"
        }
      ],
      "stateMutability": "view",
      "type": "function"
    },
    {
      "inputs": [
        {
          "internalType": "address",
          "name": "from",
          "type": "address"
        },
        {
          "internalType": "address",
          "name": "to",
          "type": "address"
        },
        {
          "internalType": "euint64",
          "name": "amount",
          "type": "bytes32"
        }
      ],
      "name": "operatorTransfer",
      "outputs": [],
      "stateMutability": "nonpayable",
      "type": "function"
    },
    {
      "inputs": [
        {
          "internalType": "address",
          "name": "from",
          "type": "address"
        },
        {
          "internalType": "address",
          "name": "to",
          "type": "address"
        },
        {
          "internalType": "externalEuint64",
          "name": "encAmount",
          "type": "bytes32"
        },
        {
          "internalType": "bytes",
          "name": "inputProof",
          "type": "bytes"
        }
      ],
      "name": "requestUnwrap",
      "outputs": [
        {
          "internalType": "bytes32",
          "name": "requestId",
          "type": "bytes32"
        }
      ],
      "stateMutability": "nonpayable",
      "type": "function"
    },
    {
      "inputs": [],
      "name": "symbol",
      "outputs": [
        {
          "internalType": "string",
          "name": "",
          "type": "string"
        }
      ],
      "stateMutability": "view",
      "type": "function"
    },
    {
      "inputs": [
        {
          "internalType": "address",
          "name": "to",
          "type": "address"
        },
        {
          "internalType": "externalEuint64",
          "name": "encAmount",
          "type": "bytes32"
        },
        {
          "internalType": "bytes",
          "name": "inputProof",
          "type": "bytes"
        }
      ],
      "name": "transfer",
      "outputs": [],
      "stateMutability": "nonpayable",
      "type": "function"
    },
    {
      "inputs": [],
      "name": "underlying",
      "outputs": [
        {
          "internalType": "contract IERC20",
          "name": "",
          "type": "address"
        }
      ],
      "stateMutability": "view",
      "type": "function"
    },
    {
      "inputs": [
        {
          "internalType": "bytes32",
          "name": "",
          "type": "bytes32"
        }
      ],
      "name": "unwrapRequests",
      "outputs": [
        {
          "internalType": "address",
          "name": "receiver",
          "type": "address"
        },
        {
          "internalType": "bytes32",
          "name": "encHandle",
          "type": "bytes32"
        },
        {
          "internalType": "bool",
          "name": "finalized",
          "type": "bool"
        }
      ],
      "stateMutability": "view",
      "type": "function"
    },
    {
      "inputs": [
        {
          "internalType": "uint64",
          "name": "amount",
          "type": "uint64"
        }
      ],
      "name": "wrap",
      "outputs": [],
      "stateMutability": "nonpayable",
      "type": "function"
    }
  ],
  "transactionHash": "0x695b8ab7bb64199eafa4bc6942cc325a6489cc91fee0535b29f0a83f798dd205",
  "args": [
    "0x186Cdd9d59Bda104Ae6a44aE8772a541bBd34B81",
    "Confidential USD Coin",
    "cUSDC",
    6
  ],
  "numDeployments": 1,
  "solcInputHash": "d6d8ac281ab73985cad59c79433f2205",
  "bytecode": "0x60a060405234801561000f575f5ffd5b506040516123d33803806123d383398101604081905261002e91610371565b6100e2610039610125565b80517f9e7b61f58c47dc699ac88507c4f5bb9f121c03808c5676a8078fe583e464970080546001600160a01b03199081166001600160a01b039384161790915560208301517f9e7b61f58c47dc699ac88507c4f5bb9f121c03808c5676a8078fe583e46497018054831691841691909117905560408301517f9e7b61f58c47dc699ac88507c4f5bb9f121c03808c5676a8078fe583e46497028054909216921691909117905550565b6001600160a01b0384166080525f6100fa848261048f565b506001610107838261048f565b506002805460ff191660ff9290921691909117905550610549915050565b604080516060810182525f8082526020820181905291810191909152466001036101be575060408051606080820183525f8083526020808401829052928401528251908101835273ca2e8f1f656cd25c01f05d0b243ab1ecd4a8ffb6815273d82385dada1ae3e969447f20a3164f6213100e75918101919091527377627828a55156b04ac0dc0eb30467f1a552bb039181019190915290565b4662aa36a70361023d575060408051606080820183525f8083526020808401829052928401528251908101835273f0ffdc93b7e186bc2f8cb3daa75d86d1930a433d81527392c920834ec8941d2c77d188936e1f7a6f49c1279181019190915273be0e383937d564d7ff0bc3b46c51f0bf8d5c311a9181019190915290565b46617a69036102bb575060408051606080820183525f808352602080840182905292840152825190810183527350157cffd6bbfa2dece204a89ec419c23ef5755d815273e3a9105a3a932253a70f126eb1e3b589c643dd249181019190915273901f8942346f7ab3a01f6d7613119bca447bb0309181019190915290565b6040516373cac13b60e01b815260040160405180910390fd5b634e487b7160e01b5f52604160045260245ffd5b5f82601f8301126102f7575f5ffd5b81516001600160401b03811115610310576103106102d4565b604051601f8201601f19908116603f011681016001600160401b038111828210171561033e5761033e6102d4565b604052818152838201602001851015610355575f5ffd5b8160208501602083015e5f918101602001919091529392505050565b5f5f5f5f60808587031215610384575f5ffd5b84516001600160a01b038116811461039a575f5ffd5b60208601519094506001600160401b038111156103b5575f5ffd5b6103c1878288016102e8565b604087015190945090506001600160401b038111156103de575f5ffd5b6103ea878288016102e8565b925050606085015160ff81168114610400575f5ffd5b939692955090935050565b600181811c9082168061041f57607f821691505b60208210810361043d57634e487b7160e01b5f52602260045260245ffd5b50919050565b601f82111561048a57805f5260205f20601f840160051c810160208510156104685750805b601f840160051c820191505b81811015610487575f8155600101610474565b50505b505050565b81516001600160401b038111156104a8576104a86102d4565b6104bc816104b6845461040b565b84610443565b6020601f8211600181146104ee575f83156104d75750848201515b5f19600385901b1c1916600184901b178455610487565b5f84815260208120601f198516915b8281101561051d57878501518255602094850194600190920191016104fd565b508482101561053a57868401515f19600387901b60f8161c191681555b50505050600190811b01905550565b608051611e6461056f5f395f81816101da015281816105690152610b340152611e645ff3fe608060405234801561000f575f5ffd5b50600436106100e5575f3560e01c80636f307dc3116100885780638927b030116100635780638927b0301461024f57806395d89b4114610257578063cd6dcfce1461025f578063fbb9586914610272575f5ffd5b80636f307dc3146101d557806370a08231146102145780637b7e0a5a1461023c575f5ffd5b80632bfd522e116100c35780632bfd522e1461015f578063313ce567146101825780633284aae5146101a157806352a7c9bf146101c2575f5ffd5b806306fdde03146100e95780631a15d64f1461010757806329b35ab61461011c575b5f5ffd5b6100f16102d4565b6040516100fe9190611994565b60405180910390f35b61011a6101153660046119eb565b61035f565b005b61011a61012a366004611af0565b6001600160a01b03919091165f9081526004602090815260408083203384529091529020805460ff1916911515919091179055565b61017261016d366004611b25565b610689565b60405190151581526020016100fe565b60025461018f9060ff1681565b60405160ff90911681526020016100fe565b6101b46101af366004611b56565b6106b8565b6040519081526020016100fe565b61011a6101d0366004611bc0565b610a8a565b6101fc7f000000000000000000000000000000000000000000000000000000000000000081565b6040516001600160a01b0390911681526020016100fe565b6101b4610222366004611be7565b6001600160a01b03165f9081526003602052604090205490565b61011a61024a366004611c00565b610cbf565b6101b4610ed6565b6100f1610ee4565b61011a61026d366004611c56565b610ef1565b6102ad610280366004611c90565b60056020525f90815260409020805460018201546002909201546001600160a01b03909116919060ff1683565b604080516001600160a01b03909416845260208401929092521515908201526060016100fe565b5f80546102e090611ca7565b80601f016020809104026020016040519081016040528092919081815260200182805461030c90611ca7565b80156103575780601f1061032e57610100808354040283529160200191610357565b820191905f5260205f20905b81548152906001019060200180831161033a57829003601f168201915b505050505081565b5f87815260056020526040902080546001600160a01b03166103ee5760405162461bcd60e51b815260206004820152602960248201527f436f6e666964656e7469616c4552433230577261707065723a20756e6b6e6f7760448201527f6e2072657175657374000000000000000000000000000000000000000000000060648201526084015b60405180910390fd5b600281015460ff16156104695760405162461bcd60e51b815260206004820152602b60248201527f436f6e666964656e7469616c4552433230577261707065723a20616c7265616460448201527f792066696e616c697a656400000000000000000000000000000000000000000060648201526084016103e5565b61050a8787808060200260200160405190810160405280939291908181526020018383602002808284375f9201919091525050604080516020601f8b0181900481028201810190925289815292508991508890819084018382808284375f9201919091525050604080516020601f8a0181900481028201810190925288815292508891508790819084018382808284375f9201919091525061118192505050565b5f61051785870187611bc0565b60028301805460ff19166001179055905067ffffffffffffffff81161561063357815460405163a9059cbb60e01b81526001600160a01b03918216600482015267ffffffffffffffff831660248201527f00000000000000000000000000000000000000000000000000000000000000009091169063a9059cbb906044016020604051808303815f875af11580156105b1573d5f5f3e3d5ffd5b505050506040513d601f19601f820116820180604052508101906105d59190611cdf565b6106335760405162461bcd60e51b815260206004820152602960248201527f436f6e666964656e7469616c4552433230577261707065723a207472616e7366604482015268195c8819985a5b195960ba1b60648201526084016103e5565b815460405167ffffffffffffffff831681528a916001600160a01b0316907f2d4edf3c2943002120f53dab3f8940043f34799f4a92ab90f2f81f7dd004a49e9060200160405180910390a3505050505050505050565b6001600160a01b038083165f9081526004602090815260408083209385168352929052205460ff165b92915050565b5f336001600160a01b03871614806106f25750335f9081526004602090815260408083206001600160a01b038a16845290915290205460ff165b6107645760405162461bcd60e51b815260206004820152602860248201527f436f6e666964656e7469616c4552433230577261707065723a206e6f7420617560448201527f74686f72697a656400000000000000000000000000000000000000000000000060648201526084016103e5565b6001600160a01b0385166107e05760405162461bcd60e51b815260206004820152602960248201527f436f6e666964656e7469616c4552433230577261707065723a207a65726f207460448201527f6f2061646472657373000000000000000000000000000000000000000000000060648201526084016103e5565b6001600160a01b03861661085c5760405162461bcd60e51b815260206004820152602b60248201527f436f6e666964656e7469616c4552433230577261707065723a207a65726f206660448201527f726f6d206164647265737300000000000000000000000000000000000000000060648201526084016103e5565b6001600160a01b0386165f908152600360205260409020546108cc5760405162461bcd60e51b8152602060048201526024808201527f436f6e666964656e7469616c4552433230577261707065723a206e6f2062616c604482015263616e636560e01b60648201526084016103e5565b5f61090c8585858080601f0160208091040260200160405190810160405280939291908181526020018383808284375f920191909152506111ec92505050565b6001600160a01b0388165f9081526003602052604081205491925090610933908390611252565b6001600160a01b0389165f908152600360205260409020549091506109589082611287565b6001600160a01b0389165f90815260036020526040902081905561097c90896112b5565b5f610986826112ce565b604080516001600160a01b03808d1660208301528b169181019190915243606082015260808101829052909150819060a00160408051808303601f1901815282825280516020918201206060840183526001600160a01b038d81168086528386018781525f8787018181528582526005875290879020975188547fffffffffffffffffffffffff000000000000000000000000000000000000000016941693909317875551600187015590516002909501805460ff19169515159590951790945591518481529197508792917f4b1bfb262557cf08a74ddeefb8aef086b81deb08484bdc1820b9f420cdd1aa0e910160405180910390a35050505095945050505050565b5f8167ffffffffffffffff1611610b095760405162461bcd60e51b815260206004820152602560248201527f436f6e666964656e7469616c4552433230577261707065723a207a65726f206160448201527f6d6f756e7400000000000000000000000000000000000000000000000000000060648201526084016103e5565b6040516323b872dd60e01b815233600482015230602482015267ffffffffffffffff821660448201527f00000000000000000000000000000000000000000000000000000000000000006001600160a01b0316906323b872dd906064016020604051808303815f875af1158015610b82573d5f5f3e3d5ffd5b505050506040513d601f19601f82011682018060405250810190610ba69190611cdf565b610c045760405162461bcd60e51b815260206004820152602960248201527f436f6e666964656e7469616c4552433230577261707065723a207472616e7366604482015268195c8819985a5b195960ba1b60648201526084016103e5565b335f90815260036020526040902054610c3457610c20816112ed565b335f90815260036020526040902055610c65565b335f90815260036020526040902054610c5590610c50836112ed565b611303565b335f908152600360205260409020555b335f81815260036020526040902054610c7d916112b5565b60405167ffffffffffffffff8216815233907fb61d00fdfee32467c7d81db64c811ae60c104c346debf36a14afe84b8fce59e59060200160405180910390a250565b6001600160a01b038416610d245760405162461bcd60e51b815260206004820152602660248201527f436f6e666964656e7469616c4552433230577261707065723a207a65726f206160448201526564647265737360d01b60648201526084016103e5565b335f90815260036020526040902054610d8b5760405162461bcd60e51b8152602060048201526024808201527f436f6e666964656e7469616c4552433230577261707065723a206e6f2062616c604482015263616e636560e01b60648201526084016103e5565b5f610dcb8484848080601f0160208091040260200160405190810160405280939291908181526020018383808284375f920191909152506111ec92505050565b335f90815260036020526040902054909150610de79082611287565b335f818152600360205260409020829055610e0291906112b5565b6001600160a01b0385165f90815260036020526040902054610e3d576001600160a01b0385165f908152600360205260409020819055610e78565b6001600160a01b0385165f90815260036020526040902054610e5f9082611303565b6001600160a01b0386165f908152600360205260409020555b6001600160a01b0385165f90815260036020526040902054610e9a90866112b5565b6040516001600160a01b0386169033907f4853ae1b4d437c4255ac16cd3ceda3465975023f27cb141584cd9d44440fed82905f90a35050505050565b5f610edf611331565b905090565b600180546102e090611ca7565b335f9081526004602090815260408083206001600160a01b038716845290915290205460ff16610f895760405162461bcd60e51b815260206004820152602f60248201527f436f6e666964656e7469616c4552433230577261707065723a206e6f7420617060448201527f70726f766564206f70657261746f72000000000000000000000000000000000060648201526084016103e5565b6001600160a01b038216610fee5760405162461bcd60e51b815260206004820152602660248201527f436f6e666964656e7469616c4552433230577261707065723a207a65726f206160448201526564647265737360d01b60648201526084016103e5565b6001600160a01b0383165f9081526003602052604090205461105e5760405162461bcd60e51b8152602060048201526024808201527f436f6e666964656e7469616c4552433230577261707065723a206e6f2062616c604482015263616e636560e01b60648201526084016103e5565b6001600160a01b0383165f908152600360205260409020546110809082611287565b6001600160a01b0384165f9081526003602052604090208190556110a490846112b5565b6001600160a01b0382165f908152600360205260409020546110df576001600160a01b0382165f90815260036020526040902081905561111a565b6001600160a01b0382165f908152600360205260409020546111019082611303565b6001600160a01b0383165f908152600360205260409020555b6001600160a01b0382165f9081526003602052604090205461113c90836112b5565b816001600160a01b0316836001600160a01b03167f4853ae1b4d437c4255ac16cd3ceda3465975023f27cb141584cd9d44440fed8260405160405180910390a3505050565b5f61118d848484611365565b9050806111ad5760405163cf6c44e960e01b815260040160405180910390fd5b7fc6366bab028b8d033cb362cfd1f2f3457ef4e92fc738b6788b90d5a7846367a084846040516111de929190611d34565b60405180910390a150505050565b5f81515f146112085761120183836005611412565b90506106b2565b825f8190036112225761121a5f6112ed565b9150506106b2565b61122c813361151f565b61120157604051630276b5d960e01b8152600481018290523360248201526044016103e5565b5f82611264576112615f6112ed565b92505b81611275576112725f6112ed565b91505b61128083835f6115ab565b9392505050565b5f82611299576112965f6112ed565b92505b816112aa576112a75f6112ed565b91505b61128083835f61167b565b6112be82611705565b506112c98282611721565b505050565b5f816112e0576112dd5f6112ed565b91505b6112e982611744565b5090565b5f6106b28267ffffffffffffffff1660056117f4565b5f82611315576113125f6112ed565b92505b81611326576113235f6112ed565b91505b61128083835f611896565b5f466001036113405750600190565b4662aa36a703611351575061271190565b46617a690361136057505f1990565b505f90565b7f9e7b61f58c47dc699ac88507c4f5bb9f121c03808c5676a8078fe583e4649702546040516378542ead60e01b81525f915f516020611e385f395f51905f52916001600160a01b03909116906378542ead906113c990889088908890600401611d58565b6020604051808303815f875af11580156113e5573d5f5f3e3d5ffd5b505050506040513d601f19601f820116820180604052508101906114099190611cdf565b95945050505050565b7f9e7b61f58c47dc699ac88507c4f5bb9f121c03808c5676a8078fe583e46497015460405163045fc19560e11b81525f915f516020611e385f395f51905f52916001600160a01b03909116906308bf832a90611478908890339089908990600401611db0565b6020604051808303815f875af1158015611494573d5f5f3e3d5ffd5b505050506040513d601f19601f820116820180604052508101906114b89190611de6565b8154604051630f8e573b60e21b8152600481018390523360248201529193506001600160a01b031690633e395cec906044015f604051808303815f87803b158015611501575f5ffd5b505af1158015611513573d5f5f3e3d5ffd5b50505050509392505050565b5f805f516020611e385f395f51905f5280546040516382027b6d60e01b8152600481018790526001600160a01b0386811660248301529293509116906382027b6d90604401602060405180830381865afa15801561157f573d5f5f3e3d5ffd5b505050506040513d601f19601f820116820180604052508101906115a39190611cdf565b949350505050565b5f5f82156115be5750600160f81b6115c1565b505f5b7f9e7b61f58c47dc699ac88507c4f5bb9f121c03808c5676a8078fe583e4649701546040516304559f7160e01b815260048101879052602481018690526001600160f81b0319831660448201525f516020611e385f395f51905f52916001600160a01b0316906304559f71906064015b6020604051808303815f875af115801561164d573d5f5f3e3d5ffd5b505050506040513d601f19601f820116820180604052508101906116719190611de6565b9695505050505050565b5f5f821561168e5750600160f81b611691565b505f5b7f9e7b61f58c47dc699ac88507c4f5bb9f121c03808c5676a8078fe583e4649701546040516303056db360e31b815260048101879052602481018690526001600160f81b0319831660448201525f516020611e385f395f51905f52916001600160a01b03169063182b6d9890606401611631565b5f81611717576117145f6112ed565b91505b6112e98230611920565b5f82611733576117305f6112ed565b92505b61173d8383611920565b5090919050565b6040805160018082528183019092525f516020611e385f395f51905f52915f91906020808301908036833701905050905082815f8151811061178857611788611dfd565b60209081029190910101528154604051637d6e912360e11b81526001600160a01b039091169063fadd2246906117c2908490600401611e11565b5f604051808303815f87803b1580156117d9575f5ffd5b505af11580156117eb573d5f5f3e3d5ffd5b50505050505050565b7f9e7b61f58c47dc699ac88507c4f5bb9f121c03808c5676a8078fe583e464970154604051639cd07acb60e01b81525f915f516020611e385f395f51905f52916001600160a01b0390911690639cd07acb906118569087908790600401611e23565b6020604051808303815f875af1158015611872573d5f5f3e3d5ffd5b505050506040513d601f19601f820116820180604052508101906115a39190611de6565b5f5f82156118a95750600160f81b6118ac565b505f5b7f9e7b61f58c47dc699ac88507c4f5bb9f121c03808c5676a8078fe583e46497015460405163022f65e760e31b815260048101879052602481018690526001600160f81b0319831660448201525f516020611e385f395f51905f52916001600160a01b03169063117b2f3890606401611631565b5f516020611e385f395f51905f528054604051635ca4b5b160e11b8152600481018590526001600160a01b0384811660248301529091169063b9496b62906044016117c2565b5f81518084528060208401602086015e5f602082860101526020601f19601f83011685010191505092915050565b602081525f6112806020830184611966565b5f5f83601f8401126119b6575f5ffd5b50813567ffffffffffffffff8111156119cd575f5ffd5b6020830191508360208285010111156119e4575f5ffd5b9250929050565b5f5f5f5f5f5f5f6080888a031215611a01575f5ffd5b87359650602088013567ffffffffffffffff811115611a1e575f5ffd5b8801601f81018a13611a2e575f5ffd5b803567ffffffffffffffff811115611a44575f5ffd5b8a60208260051b8401011115611a58575f5ffd5b60209190910196509450604088013567ffffffffffffffff811115611a7b575f5ffd5b611a878a828b016119a6565b909550935050606088013567ffffffffffffffff811115611aa6575f5ffd5b611ab28a828b016119a6565b989b979a50959850939692959293505050565b80356001600160a01b0381168114611adb575f5ffd5b919050565b8015158114611aed575f5ffd5b50565b5f5f60408385031215611b01575f5ffd5b611b0a83611ac5565b91506020830135611b1a81611ae0565b809150509250929050565b5f5f60408385031215611b36575f5ffd5b611b3f83611ac5565b9150611b4d60208401611ac5565b90509250929050565b5f5f5f5f5f60808688031215611b6a575f5ffd5b611b7386611ac5565b9450611b8160208701611ac5565b935060408601359250606086013567ffffffffffffffff811115611ba3575f5ffd5b611baf888289016119a6565b969995985093965092949392505050565b5f60208284031215611bd0575f5ffd5b813567ffffffffffffffff81168114611280575f5ffd5b5f60208284031215611bf7575f5ffd5b61128082611ac5565b5f5f5f5f60608587031215611c13575f5ffd5b611c1c85611ac5565b935060208501359250604085013567ffffffffffffffff811115611c3e575f5ffd5b611c4a878288016119a6565b95989497509550505050565b5f5f5f60608486031215611c68575f5ffd5b611c7184611ac5565b9250611c7f60208501611ac5565b929592945050506040919091013590565b5f60208284031215611ca0575f5ffd5b5035919050565b600181811c90821680611cbb57607f821691505b602082108103611cd957634e487b7160e01b5f52602260045260245ffd5b50919050565b5f60208284031215611cef575f5ffd5b815161128081611ae0565b5f8151808452602084019350602083015f5b82811015611d2a578151865260209586019590910190600101611d0c565b5093949350505050565b604081525f611d466040830185611cfa565b82810360208401526114098185611966565b606081525f611d6a6060830186611cfa565b8281036020840152611d7c8186611966565b905082810360408401526116718185611966565b60548110611dac57634e487b7160e01b5f52602160045260245ffd5b9052565b8481526001600160a01b0384166020820152608060408201525f611dd76080830185611966565b90506114096060830184611d90565b5f60208284031215611df6575f5ffd5b5051919050565b634e487b7160e01b5f52603260045260245ffd5b602081525f6112806020830184611cfa565b828152604081016112806020830184611d9056fe9e7b61f58c47dc699ac88507c4f5bb9f121c03808c5676a8078fe583e4649700a164736f6c634300081b000a",
  "devdoc": {
    "events": {
      "Transfer(address,address)": {
        "details": "Intentionally contains NO amount — confidential."
      },
      "UnwrapFinalized(address,bytes32,uint64)": {
        "details": "Step 3 — completed after KMS decryption proof is verified."
      },
      "UnwrapRequested(address,bytes32,bytes32)": {
        "details": "Step 1 — initiated by the user."
      }
    },
    "kind": "dev",
    "methods": {
      "finalizeUnwrap(bytes32,bytes32[],bytes,bytes)": {
        "params": {
          "abiEncodedCleartexts": "ABI-encoded cleartext values from instance.publicDecrypt().",
          "decryptionProof": "KMS signatures proof from instance.publicDecrypt().",
          "handles": "Array of ciphertext handles that were decrypted                              (should be [encHandle] from UnwrapRequested).",
          "requestId": "From the UnwrapRequested event."
        }
      },
      "requestUnwrap(address,address,bytes32,bytes)": {
        "details": "The actual transfer amount is capped at the caller's real balance using       FHE.min, preventing underflow attacks. The true cleartext is revealed       only during finalizeUnwrap after the KMS decryption proof is presented.",
        "params": {
          "encAmount": "Amount to unwrap, encrypted client-side via the FHEVM SDK.",
          "from": "Address whose balance is debited (msg.sender or approved operator).",
          "inputProof": "ZK proof from the relayer.",
          "to": "Address that will receive the underlying ERC20."
        },
        "returns": {
          "requestId": " Unique id for this unwrap request (emitted in UnwrapRequested)."
        }
      },
      "wrap(uint64)": {
        "details": "Caller must have approved this contract on the underlying ERC20 first."
      }
    },
    "stateVariables": {
      "_balances": {
        "details": "Encrypted balance per holder."
      },
      "_operators": {
        "details": "operator → (owner → approved)"
      }
    },
    "title": "ConfidentialERC20Wrapper",
    "version": 1
  },
  "userdoc": {
    "errors": {
      "InvalidKMSSignatures()": [
        {
          "notice": "Returned if the returned KMS signatures are not valid."
        }
      ],
      "SenderNotAllowedToUseHandle(bytes32,address)": [
        {
          "notice": "Returned if the sender is not allowed to use the handle."
        }
      ],
      "ZamaProtocolUnsupported()": [
        {
          "notice": "Returned if the Zama protocol is not supported on the current chain"
        }
      ]
    },
    "events": {
      "PublicDecryptionVerified(bytes32[],bytes)": {
        "notice": "This event is emitted when public decryption has been successfully verified."
      }
    },
    "kind": "user",
    "methods": {
      "finalizeUnwrap(bytes32,bytes32[],bytes,bytes)": {
        "notice": "Complete an unwrap by presenting the KMS decryption proof."
      },
      "operatorTransfer(address,address,bytes32)": {
        "notice": "Operator-initiated confidential transfer.         Used by ConfidentialPayroll to pay salaries.         The calling contract must have ACL permission on `amount`         (granted by the payroll contract via FHE.allow before calling this)."
      },
      "requestUnwrap(address,address,bytes32,bytes)": {
        "notice": "Initiate an unwrap. Burns the encrypted amount from `from`'s balance         and marks it for public KMS decryption."
      },
      "transfer(address,bytes32,bytes)": {
        "notice": "Transfer an encrypted amount to `to`."
      },
      "wrap(uint64)": {
        "notice": "Deposit `amount` underlying tokens and credit your encrypted balance."
      }
    },
    "notice": "Wraps a regular ERC20 (USDC / USDT) into a fully confidential token         using Zama FHEVM. Balances are stored as FHE ciphertexts — on-chain         observers cannot see how much any address holds. Unwrap flow (two-step async, per Zama protocol):   1. requestUnwrap(from, to, encAmount, inputProof)         — Burns the encrypted amount from `from`'s balance (capped at actual           balance via FHE.min to prevent underflow exploits).         — Marks the capped amount for public KMS decryption.         — Emits UnwrapRequested(receiver, requestId, encHandle).   2. Off-chain: call instance.publicDecrypt([encHandle]) via the relayer SDK         — May need a few retries if decryption is not yet ready.   3. finalizeUnwrap(requestId, handles, abiEncodedCleartexts, decryptionProof)         — Verifies the KMS decryption proof via FHE.checkSignatures.         — Transfers the decrypted amount of underlying ERC20 to the receiver.         — Emits UnwrapFinalized(receiver, requestId, amount). Authorised operators (e.g. a ConfidentialPayroll contract) may call operatorTransfer() to move encrypted funds on behalf of the `from` address, provided they have been approved first via approveOperator().",
    "version": 1
  },
  "storageLayout": {
    "storage": [
      {
        "astId": 42250,
        "contract": "contracts/ConfidentialERC20Wrapper.sol:ConfidentialERC20Wrapper",
        "label": "name",
        "offset": 0,
        "slot": "0",
        "type": "t_string_storage"
      },
      {
        "astId": 42252,
        "contract": "contracts/ConfidentialERC20Wrapper.sol:ConfidentialERC20Wrapper",
        "label": "symbol",
        "offset": 0,
        "slot": "1",
        "type": "t_string_storage"
      },
      {
        "astId": 42254,
        "contract": "contracts/ConfidentialERC20Wrapper.sol:ConfidentialERC20Wrapper",
        "label": "decimals",
        "offset": 0,
        "slot": "2",
        "type": "t_uint8"
      },
      {
        "astId": 42260,
        "contract": "contracts/ConfidentialERC20Wrapper.sol:ConfidentialERC20Wrapper",
        "label": "_balances",
        "offset": 0,
        "slot": "3",
        "type": "t_mapping(t_address,t_userDefinedValueType(euint64)43962)"
      },
      {
        "astId": 42267,
        "contract": "contracts/ConfidentialERC20Wrapper.sol:ConfidentialERC20Wrapper",
        "label": "_operators",
        "offset": 0,
        "slot": "4",
        "type": "t_mapping(t_address,t_mapping(t_address,t_bool))"
      },
      {
        "astId": 42279,
        "contract": "contracts/ConfidentialERC20Wrapper.sol:ConfidentialERC20Wrapper",
        "label": "unwrapRequests",
        "offset": 0,
        "slot": "5",
        "type": "t_mapping(t_bytes32,t_struct(UnwrapRequest)42274_storage)"
      }
    ],
    "types": {
      "t_address": {
        "encoding": "inplace",
        "label": "address",
        "numberOfBytes": "20"
      },
      "t_bool": {
        "encoding": "inplace",
        "label": "bool",
        "numberOfBytes": "1"
      },
      "t_bytes32": {
        "encoding": "inplace",
        "label": "bytes32",
        "numberOfBytes": "32"
      },
      "t_mapping(t_address,t_bool)": {
        "encoding": "mapping",
        "key": "t_address",
        "label": "mapping(address => bool)",
        "numberOfBytes": "32",
        "value": "t_bool"
      },
      "t_mapping(t_address,t_mapping(t_address,t_bool))": {
        "encoding": "mapping",
        "key": "t_address",
        "label": "mapping(address => mapping(address => bool))",
        "numberOfBytes": "32",
        "value": "t_mapping(t_address,t_bool)"
      },
      "t_mapping(t_address,t_userDefinedValueType(euint64)43962)": {
        "encoding": "mapping",
        "key": "t_address",
        "label": "mapping(address => euint64)",
        "numberOfBytes": "32",
        "value": "t_userDefinedValueType(euint64)43962"
      },
      "t_mapping(t_bytes32,t_struct(UnwrapRequest)42274_storage)": {
        "encoding": "mapping",
        "key": "t_bytes32",
        "label": "mapping(bytes32 => struct ConfidentialERC20Wrapper.UnwrapRequest)",
        "numberOfBytes": "32",
        "value": "t_struct(UnwrapRequest)42274_storage"
      },
      "t_string_storage": {
        "encoding": "bytes",
        "label": "string",
        "numberOfBytes": "32"
      },
      "t_struct(UnwrapRequest)42274_storage": {
        "encoding": "inplace",
        "label": "struct ConfidentialERC20Wrapper.UnwrapRequest",
        "members": [
          {
            "astId": 42269,
            "contract": "contracts/ConfidentialERC20Wrapper.sol:ConfidentialERC20Wrapper",
            "label": "receiver",
            "offset": 0,
            "slot": "0",
            "type": "t_address"
          },
          {
            "astId": 42271,
            "contract": "contracts/ConfidentialERC20Wrapper.sol:ConfidentialERC20Wrapper",
            "label": "encHandle",
            "offset": 0,
            "slot": "1",
            "type": "t_bytes32"
          },
          {
            "astId": 42273,
            "contract": "contracts/ConfidentialERC20Wrapper.sol:ConfidentialERC20Wrapper",
            "label": "finalized",
            "offset": 0,
            "slot": "2",
            "type": "t_bool"
          }
        ],
        "numberOfBytes": "96"
      },
      "t_uint8": {
        "encoding": "inplace",
        "label": "uint8",
        "numberOfBytes": "1"
      },
      "t_userDefinedValueType(euint64)43962": {
        "encoding": "inplace",
        "label": "euint64",
        "numberOfBytes": "32"
      }
    }
  }
}